{
    "contractName": "HelloWorld",
    "abi": [
        {
            "inputs": [],
            "name": "getHelloMessage",
            "outputs": [
                {
                    "internalType": "string",
                    "name": "",
                    "type": "string"
                }
            ],
            "stateMutability": "view",
            "type": "function"
        },
        {
            "inputs": [],
            "name": "getSecretNumber",
            "outputs": [
                {
                    "internalType": "uint256",
                    "name": "",
                    "type": "uint256"
                }
            ],
            "stateMutability": "view",
            "type": "function"
        },
        {
            "inputs": [
                {
                    "internalType": "uint256",
                    "name": "_secret",
                    "type": "uint256"
                }
            ],
            "name": "setSecretNumber",
            "outputs": [],
            "stateMutability": "nonpayable",
            "type": "function"
        }
    ],
    "bytecode": "60c0604052600c60808190526b12195b1b1bcb081ddbdc9b1960a21b60a090815261002d9160009190610040565b5034801561003a57600080fd5b50610114565b82805461004c906100d9565b90600052602060002090601f01602090048101928261006e57600085556100b4565b82601f1061008757805160ff19168380011785556100b4565b828001600101855582156100b4579182015b828111156100b4578251825591602001919060010190610099565b506100c09291506100c4565b5090565b5b808211156100c057600081556001016100c5565b600181811c908216806100ed57607f821691505b6020821081141561010e57634e487b7160e01b600052602260045260246000fd5b50919050565b6101fb806101236000396000f3fe608060405234801561001057600080fd5b50600436106100415760003560e01c80633493b37c1461004657806352ee5a551461006457806384c1d63914610079575b600080fd5b61004e61008a565b60405161005b919061011c565b60405180910390f35b610077610072366004610171565b600155565b005b60015460405190815260200161005b565b6060600080546100999061018a565b80601f01602080910402602001604051908101604052809291908181526020018280546100c59061018a565b80156101125780601f106100e757610100808354040283529160200191610112565b820191906000526020600020905b8154815290600101906020018083116100f557829003601f168201915b5050505050905090565b600060208083528351808285015260005b818110156101495785810183015185820160400152820161012d565b8181111561015b576000604083870101525b50601f01601f1916929092016040019392505050565b60006020828403121561018357600080fd5b5035919050565b600181811c9082168061019e57607f821691505b602082108114156101bf57634e487b7160e01b600052602260045260246000fd5b5091905056fea2646970667358221220541ae080fee7b3215b26018fa90590b5614ded644b214ed2d2b987423a04a03664736f6c634300080a0033",
    "sourcePath": "f:/learning/blockchain/firstProject/contracts/HelloWorld.sol",
    "compiler": {
        "name": "solc",
        "version": "0.8.10+commit.fc410830"
    },
    "functionHashes": {
        "getHelloMessage()": "3493b37c",
        "getSecretNumber()": "84c1d639",
        "setSecretNumber(uint256)": "52ee5a55"
    },
    "gasEstimates": {
        "creation": {
            "codeDepositCost": "101400",
            "executionCost": "infinite",
            "totalCost": "infinite"
        },
        "external": {
            "getHelloMessage()": "infinite",
            "getSecretNumber()": "2302",
            "setSecretNumber(uint256)": "22312"
        }
    }
}