{
  "contractName": "Fundme",
  "abi": [
    {
      "inputs": [],
      "stateMutability": "nonpayable",
      "type": "constructor"
    },
    {
      "inputs": [
        {
          "internalType": "address",
          "name": "",
          "type": "address"
        }
      ],
      "name": "addressToAmountFunded",
      "outputs": [
        {
          "internalType": "uint256",
          "name": "",
          "type": "uint256"
        }
      ],
      "stateMutability": "view",
      "type": "function"
    },
    {
      "inputs": [],
      "name": "owner",
      "outputs": [
        {
          "internalType": "address payable",
          "name": "",
          "type": "address"
        }
      ],
      "stateMutability": "view",
      "type": "function"
    },
    {
      "inputs": [],
      "name": "fund",
      "outputs": [],
      "stateMutability": "payable",
      "type": "function"
    }
  ],
  "bytecode": "0x608060405234801561001057600080fd5b50336000806101000a81548173ffffffffffffffffffffffffffffffffffffffff021916908373ffffffffffffffffffffffffffffffffffffffff160217905550610454806100606000396000f3fe6080604052600436106100345760003560e01c80633e47d6f3146100395780638da5cb5b14610076578063b60d4288146100a1575b600080fd5b34801561004557600080fd5b50610060600480360381019061005b9190610233565b6100ab565b60405161006d9190610279565b60405180910390f35b34801561008257600080fd5b5061008b6100c3565b60405161009891906102b5565b60405180910390f35b6100a96100e7565b005b60016020528060005260406000206000915090505481565b60008054906101000a900473ffffffffffffffffffffffffffffffffffffffff1681565b662386f26fc10000341015610131576040517f08c379a000000000000000000000000000000000000000000000000000000000815260040161012890610379565b60405180910390fd5b34600160003373ffffffffffffffffffffffffffffffffffffffff1673ffffffffffffffffffffffffffffffffffffffff168152602001908152602001600020600082825461018091906103c8565b925050819055503373ffffffffffffffffffffffffffffffffffffffff166108fc349081150290604051600060405180830381858888f193505050501580156101cd573d6000803e3d6000fd5b50565b600080fd5b600073ffffffffffffffffffffffffffffffffffffffff82169050919050565b6000610200826101d5565b9050919050565b610210816101f5565b811461021b57600080fd5b50565b60008135905061022d81610207565b92915050565b600060208284031215610249576102486101d0565b5b60006102578482850161021e565b91505092915050565b6000819050919050565b61027381610260565b82525050565b600060208201905061028e600083018461026a565b92915050565b600061029f826101d5565b9050919050565b6102af81610294565b82525050565b60006020820190506102ca60008301846102a6565b92915050565b600082825260208201905092915050565b7f4e6f7420656e6f7567682045746865722070726f76696465642e20596f75206e60008201527f65656420746f2066756e64206d65206174206c6561737420302e30312045544860208201527f2e00000000000000000000000000000000000000000000000000000000000000604082015250565b60006103636041836102d0565b915061036e826102e1565b606082019050919050565b6000602082019050818103600083015261039281610356565b9050919050565b7f4e487b7100000000000000000000000000000000000000000000000000000000600052601160045260246000fd5b60006103d382610260565b91506103de83610260565b9250827fffffffffffffffffffffffffffffffffffffffffffffffffffffffffffffffff0382111561041357610412610399565b5b82820190509291505056fea2646970667358221220fddfcfedcdb2fe114ce4810015fff01d9f782d8458f707ec6be1751b795564ad64736f6c634300080a0033",
  "immutableReferences": {},
  "source": "// SPDX-License-Identifier: MIT\r\npragma solidity >=0.8.4 <0.9.0;\r\n\r\ncontract Fundme {\r\n    address payable public owner;\r\n\r\n    constructor() {\r\n        owner = payable(msg.sender);\r\n    }\r\n\r\n    mapping(address => uint256) public addressToAmountFunded;\r\n\r\n    function fund() public payable {\r\n        // Add requirements - check price and check room status\r\n        require(\r\n            msg.value >= 0.01 ether,\r\n            \"Not enough Ether provided. You need to fund me at least 0.01 ETH.\"\r\n        );\r\n        \r\n        addressToAmountFunded[msg.sender] += msg.value;\r\n        payable(msg.sender).transfer(msg.value);\r\n    }\r\n}\r\n",
  "sourcePath": "F:\\learning\\blockchain\\firstProject\\contracts\\FundMe.sol",
  "compiler": {
    "name": "solc",
    "version": "0.8.10+commit.fc410830.Emscripten.clang"
  },
  "schemaVersion": "3.4.3",
  "updatedAt": "2021-11-15T10:55:11.700Z",
  "devdoc": {
    "kind": "dev",
    "methods": {},
    "version": 1
  },
  "userdoc": {
    "kind": "user",
    "methods": {},
    "version": 1
  }
}